{
  "_format": "hh-sol-artifact-1",
  "contractName": "PlantationRegistry",
  "sourceName": "contracts/PlantationRegistry.sol",
  "abi": [
    {
      "inputs": [],
      "stateMutability": "nonpayable",
      "type": "constructor"
    },
    {
      "anonymous": false,
      "inputs": [
        {
          "indexed": true,
          "internalType": "address",
          "name": "owner",
          "type": "address"
        },
        {
          "indexed": true,
          "internalType": "address",
          "name": "approved",
          "type": "address"
        },
        {
          "indexed": true,
          "internalType": "uint256",
          "name": "tokenId",
          "type": "uint256"
        }
      ],
      "name": "Approval",
      "type": "event"
    },
    {
      "anonymous": false,
      "inputs": [
        {
          "indexed": true,
          "internalType": "address",
          "name": "owner",
          "type": "address"
        },
        {
          "indexed": true,
          "internalType": "address",
          "name": "operator",
          "type": "address"
        },
        {
          "indexed": false,
          "internalType": "bool",
          "name": "approved",
          "type": "bool"
        }
      ],
      "name": "ApprovalForAll",
      "type": "event"
    },
    {
      "anonymous": false,
      "inputs": [
        {
          "indexed": true,
          "internalType": "uint256",
          "name": "id",
          "type": "uint256"
        },
        {
          "indexed": true,
          "internalType": "address",
          "name": "implementer",
          "type": "address"
        },
        {
          "indexed": false,
          "internalType": "string",
          "name": "location",
          "type": "string"
        }
      ],
      "name": "PlantationRegistered",
      "type": "event"
    },
    {
      "anonymous": false,
      "inputs": [
        {
          "indexed": true,
          "internalType": "uint256",
          "name": "id",
          "type": "uint256"
        },
        {
          "indexed": true,
          "internalType": "address",
          "name": "verifier",
          "type": "address"
        }
      ],
      "name": "PlantationVerified",
      "type": "event"
    },
    {
      "anonymous": false,
      "inputs": [
        {
          "indexed": true,
          "internalType": "bytes32",
          "name": "role",
          "type": "bytes32"
        },
        {
          "indexed": true,
          "internalType": "bytes32",
          "name": "previousAdminRole",
          "type": "bytes32"
        },
        {
          "indexed": true,
          "internalType": "bytes32",
          "name": "newAdminRole",
          "type": "bytes32"
        }
      ],
      "name": "RoleAdminChanged",
      "type": "event"
    },
    {
      "anonymous": false,
      "inputs": [
        {
          "indexed": true,
          "internalType": "bytes32",
          "name": "role",
          "type": "bytes32"
        },
        {
          "indexed": true,
          "internalType": "address",
          "name": "account",
          "type": "address"
        },
        {
          "indexed": true,
          "internalType": "address",
          "name": "sender",
          "type": "address"
        }
      ],
      "name": "RoleGranted",
      "type": "event"
    },
    {
      "anonymous": false,
      "inputs": [
        {
          "indexed": true,
          "internalType": "bytes32",
          "name": "role",
          "type": "bytes32"
        },
        {
          "indexed": true,
          "internalType": "address",
          "name": "account",
          "type": "address"
        },
        {
          "indexed": true,
          "internalType": "address",
          "name": "sender",
          "type": "address"
        }
      ],
      "name": "RoleRevoked",
      "type": "event"
    },
    {
      "anonymous": false,
      "inputs": [
        {
          "indexed": true,
          "internalType": "address",
          "name": "from",
          "type": "address"
        },
        {
          "indexed": true,
          "internalType": "address",
          "name": "to",
          "type": "address"
        },
        {
          "indexed": true,
          "internalType": "uint256",
          "name": "tokenId",
          "type": "uint256"
        }
      ],
      "name": "Transfer",
      "type": "event"
    },
    {
      "inputs": [],
      "name": "DEFAULT_ADMIN_ROLE",
      "outputs": [
        {
          "internalType": "bytes32",
          "name": "",
          "type": "bytes32"
        }
      ],
      "stateMutability": "view",
      "type": "function"
    },
    {
      "inputs": [],
      "name": "VERIFIER_ROLE",
      "outputs": [
        {
          "internalType": "bytes32",
          "name": "",
          "type": "bytes32"
        }
      ],
      "stateMutability": "view",
      "type": "function"
    },
    {
      "inputs": [
        {
          "internalType": "address",
          "name": "to",
          "type": "address"
        },
        {
          "internalType": "uint256",
          "name": "tokenId",
          "type": "uint256"
        }
      ],
      "name": "approve",
      "outputs": [],
      "stateMutability": "nonpayable",
      "type": "function"
    },
    {
      "inputs": [
        {
          "internalType": "address",
          "name": "owner",
          "type": "address"
        }
      ],
      "name": "balanceOf",
      "outputs": [
        {
          "internalType": "uint256",
          "name": "",
          "type": "uint256"
        }
      ],
      "stateMutability": "view",
      "type": "function"
    },
    {
      "inputs": [
        {
          "internalType": "uint256",
          "name": "tokenId",
          "type": "uint256"
        }
      ],
      "name": "getApproved",
      "outputs": [
        {
          "internalType": "address",
          "name": "",
          "type": "address"
        }
      ],
      "stateMutability": "view",
      "type": "function"
    },
    {
      "inputs": [
        {
          "internalType": "address",
          "name": "implementer",
          "type": "address"
        }
      ],
      "name": "getImplementerPlantations",
      "outputs": [
        {
          "internalType": "uint256[]",
          "name": "",
          "type": "uint256[]"
        }
      ],
      "stateMutability": "view",
      "type": "function"
    },
    {
      "inputs": [
        {
          "internalType": "uint256",
          "name": "tokenId",
          "type": "uint256"
        }
      ],
      "name": "getPlantation",
      "outputs": [
        {
          "components": [
            {
              "internalType": "uint256",
              "name": "id",
              "type": "uint256"
            },
            {
              "internalType": "string",
              "name": "location",
              "type": "string"
            },
            {
              "internalType": "uint256",
              "name": "area",
              "type": "uint256"
            },
            {
              "internalType": "string",
              "name": "ecosystemType",
              "type": "string"
            },
            {
              "internalType": "uint256",
              "name": "plantationDate",
              "type": "uint256"
            },
            {
              "internalType": "address",
              "name": "implementer",
              "type": "address"
            },
            {
              "internalType": "bool",
              "name": "verified",
              "type": "bool"
            },
            {
              "internalType": "string",
              "name": "ipfsHash",
              "type": "string"
            }
          ],
          "internalType": "struct PlantationRegistry.PlantationData",
          "name": "",
          "type": "tuple"
        }
      ],
      "stateMutability": "view",
      "type": "function"
    },
    {
      "inputs": [
        {
          "internalType": "bytes32",
          "name": "role",
          "type": "bytes32"
        }
      ],
      "name": "getRoleAdmin",
      "outputs": [
        {
          "internalType": "bytes32",
          "name": "",
          "type": "bytes32"
        }
      ],
      "stateMutability": "view",
      "type": "function"
    },
    {
      "inputs": [
        {
          "internalType": "bytes32",
          "name": "role",
          "type": "bytes32"
        },
        {
          "internalType": "address",
          "name": "account",
          "type": "address"
        }
      ],
      "name": "grantRole",
      "outputs": [],
      "stateMutability": "nonpayable",
      "type": "function"
    },
    {
      "inputs": [
        {
          "internalType": "bytes32",
          "name": "role",
          "type": "bytes32"
        },
        {
          "internalType": "address",
          "name": "account",
          "type": "address"
        }
      ],
      "name": "hasRole",
      "outputs": [
        {
          "internalType": "bool",
          "name": "",
          "type": "bool"
        }
      ],
      "stateMutability": "view",
      "type": "function"
    },
    {
      "inputs": [
        {
          "internalType": "address",
          "name": "",
          "type": "address"
        },
        {
          "internalType": "uint256",
          "name": "",
          "type": "uint256"
        }
      ],
      "name": "implementerPlantations",
      "outputs": [
        {
          "internalType": "uint256",
          "name": "",
          "type": "uint256"
        }
      ],
      "stateMutability": "view",
      "type": "function"
    },
    {
      "inputs": [
        {
          "internalType": "address",
          "name": "owner",
          "type": "address"
        },
        {
          "internalType": "address",
          "name": "operator",
          "type": "address"
        }
      ],
      "name": "isApprovedForAll",
      "outputs": [
        {
          "internalType": "bool",
          "name": "",
          "type": "bool"
        }
      ],
      "stateMutability": "view",
      "type": "function"
    },
    {
      "inputs": [],
      "name": "name",
      "outputs": [
        {
          "internalType": "string",
          "name": "",
          "type": "string"
        }
      ],
      "stateMutability": "view",
      "type": "function"
    },
    {
      "inputs": [
        {
          "internalType": "uint256",
          "name": "tokenId",
          "type": "uint256"
        }
      ],
      "name": "ownerOf",
      "outputs": [
        {
          "internalType": "address",
          "name": "",
          "type": "address"
        }
      ],
      "stateMutability": "view",
      "type": "function"
    },
    {
      "inputs": [
        {
          "internalType": "uint256",
          "name": "tokenId",
          "type": "uint256"
        }
      ],
      "name": "plantationExists",
      "outputs": [
        {
          "internalType": "bool",
          "name": "",
          "type": "bool"
        }
      ],
      "stateMutability": "view",
      "type": "function"
    },
    {
      "inputs": [
        {
          "internalType": "uint256",
          "name": "",
          "type": "uint256"
        }
      ],
      "name": "plantations",
      "outputs": [
        {
          "internalType": "uint256",
          "name": "id",
          "type": "uint256"
        },
        {
          "internalType": "string",
          "name": "location",
          "type": "string"
        },
        {
          "internalType": "uint256",
          "name": "area",
          "type": "uint256"
        },
        {
          "internalType": "string",
          "name": "ecosystemType",
          "type": "string"
        },
        {
          "internalType": "uint256",
          "name": "plantationDate",
          "type": "uint256"
        },
        {
          "internalType": "address",
          "name": "implementer",
          "type": "address"
        },
        {
          "internalType": "bool",
          "name": "verified",
          "type": "bool"
        },
        {
          "internalType": "string",
          "name": "ipfsHash",
          "type": "string"
        }
      ],
      "stateMutability": "view",
      "type": "function"
    },
    {
      "inputs": [
        {
          "internalType": "string",
          "name": "location",
          "type": "string"
        },
        {
          "internalType": "uint256",
          "name": "area",
          "type": "uint256"
        },
        {
          "internalType": "string",
          "name": "ecosystemType",
          "type": "string"
        },
        {
          "internalType": "string",
          "name": "ipfsHash",
          "type": "string"
        }
      ],
      "name": "registerPlantation",
      "outputs": [
        {
          "internalType": "uint256",
          "name": "",
          "type": "uint256"
        }
      ],
      "stateMutability": "nonpayable",
      "type": "function"
    },
    {
      "inputs": [
        {
          "internalType": "bytes32",
          "name": "role",
          "type": "bytes32"
        },
        {
          "internalType": "address",
          "name": "account",
          "type": "address"
        }
      ],
      "name": "renounceRole",
      "outputs": [],
      "stateMutability": "nonpayable",
      "type": "function"
    },
    {
      "inputs": [
        {
          "internalType": "bytes32",
          "name": "role",
          "type": "bytes32"
        },
        {
          "internalType": "address",
          "name": "account",
          "type": "address"
        }
      ],
      "name": "revokeRole",
      "outputs": [],
      "stateMutability": "nonpayable",
      "type": "function"
    },
    {
      "inputs": [
        {
          "internalType": "address",
          "name": "from",
          "type": "address"
        },
        {
          "internalType": "address",
          "name": "to",
          "type": "address"
        },
        {
          "internalType": "uint256",
          "name": "tokenId",
          "type": "uint256"
        }
      ],
      "name": "safeTransferFrom",
      "outputs": [],
      "stateMutability": "nonpayable",
      "type": "function"
    },
    {
      "inputs": [
        {
          "internalType": "address",
          "name": "from",
          "type": "address"
        },
        {
          "internalType": "address",
          "name": "to",
          "type": "address"
        },
        {
          "internalType": "uint256",
          "name": "tokenId",
          "type": "uint256"
        },
        {
          "internalType": "bytes",
          "name": "data",
          "type": "bytes"
        }
      ],
      "name": "safeTransferFrom",
      "outputs": [],
      "stateMutability": "nonpayable",
      "type": "function"
    },
    {
      "inputs": [
        {
          "internalType": "address",
          "name": "operator",
          "type": "address"
        },
        {
          "internalType": "bool",
          "name": "approved",
          "type": "bool"
        }
      ],
      "name": "setApprovalForAll",
      "outputs": [],
      "stateMutability": "nonpayable",
      "type": "function"
    },
    {
      "inputs": [
        {
          "internalType": "bytes4",
          "name": "interfaceId",
          "type": "bytes4"
        }
      ],
      "name": "supportsInterface",
      "outputs": [
        {
          "internalType": "bool",
          "name": "",
          "type": "bool"
        }
      ],
      "stateMutability": "view",
      "type": "function"
    },
    {
      "inputs": [],
      "name": "symbol",
      "outputs": [
        {
          "internalType": "string",
          "name": "",
          "type": "string"
        }
      ],
      "stateMutability": "view",
      "type": "function"
    },
    {
      "inputs": [
        {
          "internalType": "uint256",
          "name": "tokenId",
          "type": "uint256"
        }
      ],
      "name": "tokenURI",
      "outputs": [
        {
          "internalType": "string",
          "name": "",
          "type": "string"
        }
      ],
      "stateMutability": "view",
      "type": "function"
    },
    {
      "inputs": [
        {
          "internalType": "address",
          "name": "from",
          "type": "address"
        },
        {
          "internalType": "address",
          "name": "to",
          "type": "address"
        },
        {
          "internalType": "uint256",
          "name": "tokenId",
          "type": "uint256"
        }
      ],
      "name": "transferFrom",
      "outputs": [],
      "stateMutability": "nonpayable",
      "type": "function"
    },
    {
      "inputs": [
        {
          "internalType": "uint256",
          "name": "tokenId",
          "type": "uint256"
        }
      ],
      "name": "verifyPlantation",
      "outputs": [],
      "stateMutability": "nonpayable",
      "type": "function"
    }
  ],
  "bytecode": "0x60806040523480156200001157600080fd5b506040518060400160405280601681526020017f426c756520436172626f6e20506c616e746174696f6e000000000000000000008152506040518060400160405280600381526020017f424350000000000000000000000000000000000000000000000000000000000081525081600090816200008f9190620004d0565b508060019081620000a19190620004d0565b505050620000b96000801b33620000f160201b60201c565b620000eb7f0ce23c3e399818cfee81a7ab0880f714e53d7672b08df0fa62f2843416e1ea0933620000f160201b60201c565b620005b7565b620001038282620001e360201b60201c565b620001df5760016006600084815260200190815260200160002060000160008373ffffffffffffffffffffffffffffffffffffffff1673ffffffffffffffffffffffffffffffffffffffff16815260200190815260200160002060006101000a81548160ff021916908315150217905550620001846200024e60201b60201c565b73ffffffffffffffffffffffffffffffffffffffff168173ffffffffffffffffffffffffffffffffffffffff16837f2f8788117e7eff1d82e926ec794901d17c78024a50270940304540a733656f0d60405160405180910390a45b5050565b60006006600084815260200190815260200160002060000160008373ffffffffffffffffffffffffffffffffffffffff1673ffffffffffffffffffffffffffffffffffffffff16815260200190815260200160002060009054906101000a900460ff16905092915050565b600033905090565b600081519050919050565b7f4e487b7100000000000000000000000000000000000000000000000000000000600052604160045260246000fd5b7f4e487b7100000000000000000000000000000000000000000000000000000000600052602260045260246000fd5b60006002820490506001821680620002d857607f821691505b602082108103620002ee57620002ed62000290565b5b50919050565b60008190508160005260206000209050919050565b60006020601f8301049050919050565b600082821b905092915050565b600060088302620003587fffffffffffffffffffffffffffffffffffffffffffffffffffffffffffffffff8262000319565b62000364868362000319565b95508019841693508086168417925050509392505050565b6000819050919050565b6000819050919050565b6000620003b1620003ab620003a5846200037c565b62000386565b6200037c565b9050919050565b6000819050919050565b620003cd8362000390565b620003e5620003dc82620003b8565b84845462000326565b825550505050565b600090565b620003fc620003ed565b62000409818484620003c2565b505050565b5b81811015620004315762000425600082620003f2565b6001810190506200040f565b5050565b601f82111562000480576200044a81620002f4565b620004558462000309565b8101602085101562000465578190505b6200047d620004748562000309565b8301826200040e565b50505b505050565b600082821c905092915050565b6000620004a56000198460080262000485565b1980831691505092915050565b6000620004c0838362000492565b9150826002028217905092915050565b620004db8262000256565b67ffffffffffffffff811115620004f757620004f662000261565b5b620005038254620002bf565b6200051082828562000435565b600060209050601f83116001811462000548576000841562000533578287015190505b6200053f8582620004b2565b865550620005af565b601f1984166200055886620002f4565b60005b8281101562000582578489015182556001820191506020850194506020810190506200055b565b86831015620005a257848901516200059e601f89168262000492565b8355505b6001600288020188555050505b505050505050565b61421d80620005c76000396000f3fe608060405234801561001057600080fd5b50600436106101a95760003560e01c806370a08231116100f9578063b88d4fde11610097578063d305c02511610071578063d305c02514610528578063d547741f1461055f578063e7705db61461057b578063e985e9c514610599576101a9565b8063b88d4fde146104ac578063be0c0fda146104c8578063c87b56dd146104f8576101a9565b806395d89b41116100d357806395d89b411461042457806397274d9514610442578063a217fddf14610472578063a22cb46514610490576101a9565b806370a08231146103a857806377487295146103d857806391d14854146103f4576101a9565b80632c48b2df116101665780633bbfd53d116101405780633bbfd53d146102fc57806342842e0e1461032c578063583aac20146103485780636352211e14610378576101a9565b80632c48b2df146102945780632f2ff15d146102c457806336568abe146102e0576101a9565b806301ffc9a7146101ae57806306fdde03146101de578063081812fc146101fc578063095ea7b31461022c57806323b872dd14610248578063248a9ca314610264575b600080fd5b6101c860048036038101906101c39190612a7e565b6105c9565b6040516101d59190612ac6565b60405180910390f35b6101e66105db565b6040516101f39190612b71565b60405180910390f35b61021660048036038101906102119190612bc9565b61066d565b6040516102239190612c37565b60405180910390f35b61024660048036038101906102419190612c7e565b6106b3565b005b610262600480360381019061025d9190612cbe565b6107ca565b005b61027e60048036038101906102799190612d47565b61082a565b60405161028b9190612d83565b60405180910390f35b6102ae60048036038101906102a99190612c7e565b61084a565b6040516102bb9190612dad565b60405180910390f35b6102de60048036038101906102d99190612dc8565b61087b565b005b6102fa60048036038101906102f59190612dc8565b61089c565b005b61031660048036038101906103119190612f3d565b61091f565b6040516103239190612dad565b60405180910390f35b61034660048036038101906103419190612cbe565b610b5f565b005b610362600480360381019061035d9190612bc9565b610b7f565b60405161036f919061312d565b60405180910390f35b610392600480360381019061038d9190612bc9565b610e52565b60405161039f9190612c37565b60405180910390f35b6103c260048036038101906103bd919061314f565b610ed8565b6040516103cf9190612dad565b60405180910390f35b6103f260048036038101906103ed9190612bc9565b610f8f565b005b61040e60048036038101906104099190612dc8565b611090565b60405161041b9190612ac6565b60405180910390f35b61042c6110fb565b6040516104399190612b71565b60405180910390f35b61045c6004803603810190610457919061314f565b61118d565b604051610469919061322b565b60405180910390f35b61047a611224565b6040516104879190612d83565b60405180910390f35b6104aa60048036038101906104a59190613279565b61122b565b005b6104c660048036038101906104c1919061335a565b611241565b005b6104e260048036038101906104dd9190612bc9565b6112a3565b6040516104ef9190612ac6565b60405180910390f35b610512600480360381019061050d9190612bc9565b6112cd565b60405161051f9190612b71565b60405180910390f35b610542600480360381019061053d9190612bc9565b611335565b6040516105569897969594939291906133dd565b60405180910390f35b61057960048036038101906105749190612dc8565b611542565b005b610583611563565b6040516105909190612d83565b60405180910390f35b6105b360048036038101906105ae9190613470565b611587565b6040516105c09190612ac6565b60405180910390f35b60006105d48261161b565b9050919050565b6060600080546105ea906134df565b80601f0160208091040260200160405190810160405280929190818152602001828054610616906134df565b80156106635780601f1061063857610100808354040283529160200191610663565b820191906000526020600020905b81548152906001019060200180831161064657829003601f168201915b5050505050905090565b600061067882611695565b6004600083815260200190815260200160002060009054906101000a900473ffffffffffffffffffffffffffffffffffffffff169050919050565b60006106be82610e52565b90508073ffffffffffffffffffffffffffffffffffffffff168373ffffffffffffffffffffffffffffffffffffffff160361072e576040517f08c379a000000000000000000000000000000000000000000000000000000000815260040161072590613582565b60405180910390fd5b8073ffffffffffffffffffffffffffffffffffffffff1661074d6116e0565b73ffffffffffffffffffffffffffffffffffffffff16148061077c575061077b816107766116e0565b611587565b5b6107bb576040517f08c379a00000000000000000000000000000000000000000000000000000000081526004016107b290613614565b60405180910390fd5b6107c583836116e8565b505050565b6107db6107d56116e0565b826117a1565b61081a576040517f08c379a0000000000000000000000000000000000000000000000000000000008152600401610811906136a6565b60405180910390fd5b610825838383611836565b505050565b600060066000838152602001908152602001600020600101549050919050565b6009602052816000526040600020818154811061086657600080fd5b90600052602060002001600091509150505481565b6108848261082a565b61088d81611b2f565b6108978383611b43565b505050565b6108a46116e0565b73ffffffffffffffffffffffffffffffffffffffff168173ffffffffffffffffffffffffffffffffffffffff1614610911576040517f08c379a000000000000000000000000000000000000000000000000000000000815260040161090890613738565b60405180910390fd5b61091b8282611c24565b5050565b60008061092c6007611d06565b90506109386007611d14565b6040518061010001604052808281526020018781526020018681526020018581526020014281526020013373ffffffffffffffffffffffffffffffffffffffff16815260200160001515815260200184815250600860008381526020019081526020016000206000820151816000015560208201518160010190816109bd9190613904565b506040820151816002015560608201518160030190816109dd9190613904565b506080820151816004015560a08201518160050160006101000a81548173ffffffffffffffffffffffffffffffffffffffff021916908373ffffffffffffffffffffffffffffffffffffffff16021790555060c08201518160050160146101000a81548160ff02191690831515021790555060e0820151816006019081610a649190613904565b50905050600960003373ffffffffffffffffffffffffffffffffffffffff1673ffffffffffffffffffffffffffffffffffffffff1681526020019081526020016000208190806001815401808255809150506001900390600052602060002001600090919091909150556001600a600083815260200190815260200160002060006101000a81548160ff021916908315150217905550610b043382611d2a565b3373ffffffffffffffffffffffffffffffffffffffff16817f578d3dc345e9bbb6ce3d7f2eb8f5dbd1d0e4e693e9867a0de21ec314af728c3688604051610b4b9190612b71565b60405180910390a380915050949350505050565b610b7a83838360405180602001604052806000815250611241565b505050565b610b876129b5565b600a600083815260200190815260200160002060009054906101000a900460ff16610be7576040517f08c379a0000000000000000000000000000000000000000000000000000000008152600401610bde90613a22565b60405180910390fd5b600860008381526020019081526020016000206040518061010001604052908160008201548152602001600182018054610c20906134df565b80601f0160208091040260200160405190810160405280929190818152602001828054610c4c906134df565b8015610c995780601f10610c6e57610100808354040283529160200191610c99565b820191906000526020600020905b815481529060010190602001808311610c7c57829003601f168201915b5050505050815260200160028201548152602001600382018054610cbc906134df565b80601f0160208091040260200160405190810160405280929190818152602001828054610ce8906134df565b8015610d355780601f10610d0a57610100808354040283529160200191610d35565b820191906000526020600020905b815481529060010190602001808311610d1857829003601f168201915b50505050508152602001600482015481526020016005820160009054906101000a900473ffffffffffffffffffffffffffffffffffffffff1673ffffffffffffffffffffffffffffffffffffffff1673ffffffffffffffffffffffffffffffffffffffff1681526020016005820160149054906101000a900460ff16151515158152602001600682018054610dc9906134df565b80601f0160208091040260200160405190810160405280929190818152602001828054610df5906134df565b8015610e425780601f10610e1757610100808354040283529160200191610e42565b820191906000526020600020905b815481529060010190602001808311610e2557829003601f168201915b5050505050815250509050919050565b600080610e5e83611f47565b9050600073ffffffffffffffffffffffffffffffffffffffff168173ffffffffffffffffffffffffffffffffffffffff1603610ecf576040517f08c379a0000000000000000000000000000000000000000000000000000000008152600401610ec690613a8e565b60405180910390fd5b80915050919050565b60008073ffffffffffffffffffffffffffffffffffffffff168273ffffffffffffffffffffffffffffffffffffffff1603610f48576040517f08c379a0000000000000000000000000000000000000000000000000000000008152600401610f3f90613b20565b60405180910390fd5b600360008373ffffffffffffffffffffffffffffffffffffffff1673ffffffffffffffffffffffffffffffffffffffff168152602001908152602001600020549050919050565b7f0ce23c3e399818cfee81a7ab0880f714e53d7672b08df0fa62f2843416e1ea09610fb981611b2f565b600a600083815260200190815260200160002060009054906101000a900460ff16611019576040517f08c379a000000000000000000000000000000000000000000000000000000000815260040161101090613a22565b60405180910390fd5b60016008600084815260200190815260200160002060050160146101000a81548160ff0219169083151502179055503373ffffffffffffffffffffffffffffffffffffffff16827f1ebc23f2559ca6a8a3fed591fef0b6d82e2af210ab11d04f523b234a2f15bd3660405160405180910390a35050565b60006006600084815260200190815260200160002060000160008373ffffffffffffffffffffffffffffffffffffffff1673ffffffffffffffffffffffffffffffffffffffff16815260200190815260200160002060009054906101000a900460ff16905092915050565b60606001805461110a906134df565b80601f0160208091040260200160405190810160405280929190818152602001828054611136906134df565b80156111835780601f1061115857610100808354040283529160200191611183565b820191906000526020600020905b81548152906001019060200180831161116657829003601f168201915b5050505050905090565b6060600960008373ffffffffffffffffffffffffffffffffffffffff1673ffffffffffffffffffffffffffffffffffffffff16815260200190815260200160002080548060200260200160405190810160405280929190818152602001828054801561121857602002820191906000526020600020905b815481526020019060010190808311611204575b50505050509050919050565b6000801b81565b61123d6112366116e0565b8383611f84565b5050565b61125261124c6116e0565b836117a1565b611291576040517f08c379a0000000000000000000000000000000000000000000000000000000008152600401611288906136a6565b60405180910390fd5b61129d848484846120f0565b50505050565b6000600a600083815260200190815260200160002060009054906101000a900460ff169050919050565b60606112d882611695565b60006112e261214c565b90506000815111611302576040518060200160405280600081525061132d565b8061130c84612163565b60405160200161131d929190613b7c565b6040516020818303038152906040525b915050919050565b600860205280600052604060002060009150905080600001549080600101805461135e906134df565b80601f016020809104026020016040519081016040528092919081815260200182805461138a906134df565b80156113d75780601f106113ac576101008083540402835291602001916113d7565b820191906000526020600020905b8154815290600101906020018083116113ba57829003601f168201915b5050505050908060020154908060030180546113f2906134df565b80601f016020809104026020016040519081016040528092919081815260200182805461141e906134df565b801561146b5780601f106114405761010080835404028352916020019161146b565b820191906000526020600020905b81548152906001019060200180831161144e57829003601f168201915b5050505050908060040154908060050160009054906101000a900473ffffffffffffffffffffffffffffffffffffffff16908060050160149054906101000a900460ff16908060060180546114bf906134df565b80601f01602080910402602001604051908101604052809291908181526020018280546114eb906134df565b80156115385780601f1061150d57610100808354040283529160200191611538565b820191906000526020600020905b81548152906001019060200180831161151b57829003601f168201915b5050505050905088565b61154b8261082a565b61155481611b2f565b61155e8383611c24565b505050565b7f0ce23c3e399818cfee81a7ab0880f714e53d7672b08df0fa62f2843416e1ea0981565b6000600560008473ffffffffffffffffffffffffffffffffffffffff1673ffffffffffffffffffffffffffffffffffffffff16815260200190815260200160002060008373ffffffffffffffffffffffffffffffffffffffff1673ffffffffffffffffffffffffffffffffffffffff16815260200190815260200160002060009054906101000a900460ff16905092915050565b60007f7965db0b000000000000000000000000000000000000000000000000000000007bffffffffffffffffffffffffffffffffffffffffffffffffffffffff1916827bffffffffffffffffffffffffffffffffffffffffffffffffffffffff1916148061168e575061168d82612231565b5b9050919050565b61169e81612313565b6116dd576040517f08c379a00000000000000000000000000000000000000000000000000000000081526004016116d490613a8e565b60405180910390fd5b50565b600033905090565b816004600083815260200190815260200160002060006101000a81548173ffffffffffffffffffffffffffffffffffffffff021916908373ffffffffffffffffffffffffffffffffffffffff160217905550808273ffffffffffffffffffffffffffffffffffffffff1661175b83610e52565b73ffffffffffffffffffffffffffffffffffffffff167f8c5be1e5ebec7d5bd14f71427d1e84f3dd0314c0f7b2291e5b200ac8c7c3b92560405160405180910390a45050565b6000806117ad83610e52565b90508073ffffffffffffffffffffffffffffffffffffffff168473ffffffffffffffffffffffffffffffffffffffff1614806117ef57506117ee8185611587565b5b8061182d57508373ffffffffffffffffffffffffffffffffffffffff166118158461066d565b73ffffffffffffffffffffffffffffffffffffffff16145b91505092915050565b8273ffffffffffffffffffffffffffffffffffffffff1661185682610e52565b73ffffffffffffffffffffffffffffffffffffffff16146118ac576040517f08c379a00000000000000000000000000000000000000000000000000000000081526004016118a390613c12565b60405180910390fd5b600073ffffffffffffffffffffffffffffffffffffffff168273ffffffffffffffffffffffffffffffffffffffff160361191b576040517f08c379a000000000000000000000000000000000000000000000000000000000815260040161191290613ca4565b60405180910390fd5b6119288383836001612354565b8273ffffffffffffffffffffffffffffffffffffffff1661194882610e52565b73ffffffffffffffffffffffffffffffffffffffff161461199e576040517f08c379a000000000000000000000000000000000000000000000000000000000815260040161199590613c12565b60405180910390fd5b6004600082815260200190815260200160002060006101000a81549073ffffffffffffffffffffffffffffffffffffffff02191690556001600360008573ffffffffffffffffffffffffffffffffffffffff1673ffffffffffffffffffffffffffffffffffffffff168152602001908152602001600020600082825403925050819055506001600360008473ffffffffffffffffffffffffffffffffffffffff1673ffffffffffffffffffffffffffffffffffffffff16815260200190815260200160002060008282540192505081905550816002600083815260200190815260200160002060006101000a81548173ffffffffffffffffffffffffffffffffffffffff021916908373ffffffffffffffffffffffffffffffffffffffff160217905550808273ffffffffffffffffffffffffffffffffffffffff168473ffffffffffffffffffffffffffffffffffffffff167fddf252ad1be2c89b69c2b068fc378daa952ba7f163c4a11628f55a4df523b3ef60405160405180910390a4611b2a838383600161235a565b505050565b611b4081611b3b6116e0565b612360565b50565b611b4d8282611090565b611c205760016006600084815260200190815260200160002060000160008373ffffffffffffffffffffffffffffffffffffffff1673ffffffffffffffffffffffffffffffffffffffff16815260200190815260200160002060006101000a81548160ff021916908315150217905550611bc56116e0565b73ffffffffffffffffffffffffffffffffffffffff168173ffffffffffffffffffffffffffffffffffffffff16837f2f8788117e7eff1d82e926ec794901d17c78024a50270940304540a733656f0d60405160405180910390a45b5050565b611c2e8282611090565b15611d025760006006600084815260200190815260200160002060000160008373ffffffffffffffffffffffffffffffffffffffff1673ffffffffffffffffffffffffffffffffffffffff16815260200190815260200160002060006101000a81548160ff021916908315150217905550611ca76116e0565b73ffffffffffffffffffffffffffffffffffffffff168173ffffffffffffffffffffffffffffffffffffffff16837ff6391f5c32d9c69d2a47ea670b442974b53935d1edc7fd64eb21e047a839171b60405160405180910390a45b5050565b600081600001549050919050565b6001816000016000828254019250508190555050565b600073ffffffffffffffffffffffffffffffffffffffff168273ffffffffffffffffffffffffffffffffffffffff1603611d99576040517f08c379a0000000000000000000000000000000000000000000000000000000008152600401611d9090613d10565b60405180910390fd5b611da281612313565b15611de2576040517f08c379a0000000000000000000000000000000000000000000000000000000008152600401611dd990613d7c565b60405180910390fd5b611df0600083836001612354565b611df981612313565b15611e39576040517f08c379a0000000000000000000000000000000000000000000000000000000008152600401611e3090613d7c565b60405180910390fd5b6001600360008473ffffffffffffffffffffffffffffffffffffffff1673ffffffffffffffffffffffffffffffffffffffff16815260200190815260200160002060008282540192505081905550816002600083815260200190815260200160002060006101000a81548173ffffffffffffffffffffffffffffffffffffffff021916908373ffffffffffffffffffffffffffffffffffffffff160217905550808273ffffffffffffffffffffffffffffffffffffffff16600073ffffffffffffffffffffffffffffffffffffffff167fddf252ad1be2c89b69c2b068fc378daa952ba7f163c4a11628f55a4df523b3ef60405160405180910390a4611f4360008383600161235a565b5050565b60006002600083815260200190815260200160002060009054906101000a900473ffffffffffffffffffffffffffffffffffffffff169050919050565b8173ffffffffffffffffffffffffffffffffffffffff168373ffffffffffffffffffffffffffffffffffffffff1603611ff2576040517f08c379a0000000000000000000000000000000000000000000000000000000008152600401611fe990613de8565b60405180910390fd5b80600560008573ffffffffffffffffffffffffffffffffffffffff1673ffffffffffffffffffffffffffffffffffffffff16815260200190815260200160002060008473ffffffffffffffffffffffffffffffffffffffff1673ffffffffffffffffffffffffffffffffffffffff16815260200190815260200160002060006101000a81548160ff0219169083151502179055508173ffffffffffffffffffffffffffffffffffffffff168373ffffffffffffffffffffffffffffffffffffffff167f17307eab39ab6107e8899845ad3d59bd9653f200f220920489ca2b5937696c31836040516120e39190612ac6565b60405180910390a3505050565b6120fb848484611836565b612107848484846123e5565b612146576040517f08c379a000000000000000000000000000000000000000000000000000000000815260040161213d90613e7a565b60405180910390fd5b50505050565b606060405180602001604052806000815250905090565b6060600060016121728461256c565b01905060008167ffffffffffffffff81111561219157612190612e12565b5b6040519080825280601f01601f1916602001820160405280156121c35781602001600182028036833780820191505090505b509050600082602001820190505b600115612226578080600190039150507f3031323334353637383961626364656600000000000000000000000000000000600a86061a8153600a858161221a57612219613e9a565b5b049450600085036121d1575b819350505050919050565b60007f80ac58cd000000000000000000000000000000000000000000000000000000007bffffffffffffffffffffffffffffffffffffffffffffffffffffffff1916827bffffffffffffffffffffffffffffffffffffffffffffffffffffffff191614806122fc57507f5b5e139f000000000000000000000000000000000000000000000000000000007bffffffffffffffffffffffffffffffffffffffffffffffffffffffff1916827bffffffffffffffffffffffffffffffffffffffffffffffffffffffff1916145b8061230c575061230b826126bf565b5b9050919050565b60008073ffffffffffffffffffffffffffffffffffffffff1661233583611f47565b73ffffffffffffffffffffffffffffffffffffffff1614159050919050565b50505050565b50505050565b61236a8282611090565b6123e15761237781612729565b6123858360001c6020612756565b604051602001612396929190613f61565b6040516020818303038152906040526040517f08c379a00000000000000000000000000000000000000000000000000000000081526004016123d89190612b71565b60405180910390fd5b5050565b60006124068473ffffffffffffffffffffffffffffffffffffffff16612992565b1561255f578373ffffffffffffffffffffffffffffffffffffffff1663150b7a0261242f6116e0565b8786866040518563ffffffff1660e01b81526004016124519493929190613ff0565b6020604051808303816000875af192505050801561248d57506040513d601f19601f8201168201806040525081019061248a9190614051565b60015b61250f573d80600081146124bd576040519150601f19603f3d011682016040523d82523d6000602084013e6124c2565b606091505b506000815103612507576040517f08c379a00000000000000000000000000000000000000000000000000000000081526004016124fe90613e7a565b60405180910390fd5b805181602001fd5b63150b7a0260e01b7bffffffffffffffffffffffffffffffffffffffffffffffffffffffff1916817bffffffffffffffffffffffffffffffffffffffffffffffffffffffff191614915050612564565b600190505b949350505050565b600080600090507a184f03e93ff9f4daa797ed6e38ed64bf6a1f01000000000000000083106125ca577a184f03e93ff9f4daa797ed6e38ed64bf6a1f01000000000000000083816125c0576125bf613e9a565b5b0492506040810190505b6d04ee2d6d415b85acef81000000008310612607576d04ee2d6d415b85acef810000000083816125fd576125fc613e9a565b5b0492506020810190505b662386f26fc10000831061263657662386f26fc10000838161262c5761262b613e9a565b5b0492506010810190505b6305f5e100831061265f576305f5e100838161265557612654613e9a565b5b0492506008810190505b612710831061268457612710838161267a57612679613e9a565b5b0492506004810190505b606483106126a7576064838161269d5761269c613e9a565b5b0492506002810190505b600a83106126b6576001810190505b80915050919050565b60007f01ffc9a7000000000000000000000000000000000000000000000000000000007bffffffffffffffffffffffffffffffffffffffffffffffffffffffff1916827bffffffffffffffffffffffffffffffffffffffffffffffffffffffff1916149050919050565b606061274f8273ffffffffffffffffffffffffffffffffffffffff16601460ff16612756565b9050919050565b60606000600283600261276991906140ad565b61277391906140ef565b67ffffffffffffffff81111561278c5761278b612e12565b5b6040519080825280601f01601f1916602001820160405280156127be5781602001600182028036833780820191505090505b5090507f3000000000000000000000000000000000000000000000000000000000000000816000815181106127f6576127f5614123565b5b60200101907effffffffffffffffffffffffffffffffffffffffffffffffffffffffffffff1916908160001a9053507f78000000000000000000000000000000000000000000000000000000000000008160018151811061285a57612859614123565b5b60200101907effffffffffffffffffffffffffffffffffffffffffffffffffffffffffffff1916908160001a9053506000600184600261289a91906140ad565b6128a491906140ef565b90505b6001811115612944577f3031323334353637383961626364656600000000000000000000000000000000600f8616601081106128e6576128e5614123565b5b1a60f81b8282815181106128fd576128fc614123565b5b60200101907effffffffffffffffffffffffffffffffffffffffffffffffffffffffffffff1916908160001a905350600485901c94508061293d90614152565b90506128a7565b5060008414612988576040517f08c379a000000000000000000000000000000000000000000000000000000000815260040161297f906141c7565b60405180910390fd5b8091505092915050565b6000808273ffffffffffffffffffffffffffffffffffffffff163b119050919050565b6040518061010001604052806000815260200160608152602001600081526020016060815260200160008152602001600073ffffffffffffffffffffffffffffffffffffffff168152602001600015158152602001606081525090565b6000604051905090565b600080fd5b600080fd5b60007fffffffff0000000000000000000000000000000000000000000000000000000082169050919050565b612a5b81612a26565b8114612a6657600080fd5b50565b600081359050612a7881612a52565b92915050565b600060208284031215612a9457612a93612a1c565b5b6000612aa284828501612a69565b91505092915050565b60008115159050919050565b612ac081612aab565b82525050565b6000602082019050612adb6000830184612ab7565b92915050565b600081519050919050565b600082825260208201905092915050565b60005b83811015612b1b578082015181840152602081019050612b00565b60008484015250505050565b6000601f19601f8301169050919050565b6000612b4382612ae1565b612b4d8185612aec565b9350612b5d818560208601612afd565b612b6681612b27565b840191505092915050565b60006020820190508181036000830152612b8b8184612b38565b905092915050565b6000819050919050565b612ba681612b93565b8114612bb157600080fd5b50565b600081359050612bc381612b9d565b92915050565b600060208284031215612bdf57612bde612a1c565b5b6000612bed84828501612bb4565b91505092915050565b600073ffffffffffffffffffffffffffffffffffffffff82169050919050565b6000612c2182612bf6565b9050919050565b612c3181612c16565b82525050565b6000602082019050612c4c6000830184612c28565b92915050565b612c5b81612c16565b8114612c6657600080fd5b50565b600081359050612c7881612c52565b92915050565b60008060408385031215612c9557612c94612a1c565b5b6000612ca385828601612c69565b9250506020612cb485828601612bb4565b9150509250929050565b600080600060608486031215612cd757612cd6612a1c565b5b6000612ce586828701612c69565b9350506020612cf686828701612c69565b9250506040612d0786828701612bb4565b9150509250925092565b6000819050919050565b612d2481612d11565b8114612d2f57600080fd5b50565b600081359050612d4181612d1b565b92915050565b600060208284031215612d5d57612d5c612a1c565b5b6000612d6b84828501612d32565b91505092915050565b612d7d81612d11565b82525050565b6000602082019050612d986000830184612d74565b92915050565b612da781612b93565b82525050565b6000602082019050612dc26000830184612d9e565b92915050565b60008060408385031215612ddf57612dde612a1c565b5b6000612ded85828601612d32565b9250506020612dfe85828601612c69565b9150509250929050565b600080fd5b600080fd5b7f4e487b7100000000000000000000000000000000000000000000000000000000600052604160045260246000fd5b612e4a82612b27565b810181811067ffffffffffffffff82111715612e6957612e68612e12565b5b80604052505050565b6000612e7c612a12565b9050612e888282612e41565b919050565b600067ffffffffffffffff821115612ea857612ea7612e12565b5b612eb182612b27565b9050602081019050919050565b82818337600083830152505050565b6000612ee0612edb84612e8d565b612e72565b905082815260208101848484011115612efc57612efb612e0d565b5b612f07848285612ebe565b509392505050565b600082601f830112612f2457612f23612e08565b5b8135612f34848260208601612ecd565b91505092915050565b60008060008060808587031215612f5757612f56612a1c565b5b600085013567ffffffffffffffff811115612f7557612f74612a21565b5b612f8187828801612f0f565b9450506020612f9287828801612bb4565b935050604085013567ffffffffffffffff811115612fb357612fb2612a21565b5b612fbf87828801612f0f565b925050606085013567ffffffffffffffff811115612fe057612fdf612a21565b5b612fec87828801612f0f565b91505092959194509250565b61300181612b93565b82525050565b600082825260208201905092915050565b600061302382612ae1565b61302d8185613007565b935061303d818560208601612afd565b61304681612b27565b840191505092915050565b61305a81612c16565b82525050565b61306981612aab565b82525050565b6000610100830160008301516130886000860182612ff8565b50602083015184820360208601526130a08282613018565b91505060408301516130b56040860182612ff8565b50606083015184820360608601526130cd8282613018565b91505060808301516130e26080860182612ff8565b5060a08301516130f560a0860182613051565b5060c083015161310860c0860182613060565b5060e083015184820360e08601526131208282613018565b9150508091505092915050565b60006020820190508181036000830152613147818461306f565b905092915050565b60006020828403121561316557613164612a1c565b5b600061317384828501612c69565b91505092915050565b600081519050919050565b600082825260208201905092915050565b6000819050602082019050919050565b60006131b48383612ff8565b60208301905092915050565b6000602082019050919050565b60006131d88261317c565b6131e28185613187565b93506131ed83613198565b8060005b8381101561321e57815161320588826131a8565b9750613210836131c0565b9250506001810190506131f1565b5085935050505092915050565b6000602082019050818103600083015261324581846131cd565b905092915050565b61325681612aab565b811461326157600080fd5b50565b6000813590506132738161324d565b92915050565b600080604083850312156132905761328f612a1c565b5b600061329e85828601612c69565b92505060206132af85828601613264565b9150509250929050565b600067ffffffffffffffff8211156132d4576132d3612e12565b5b6132dd82612b27565b9050602081019050919050565b60006132fd6132f8846132b9565b612e72565b90508281526020810184848401111561331957613318612e0d565b5b613324848285612ebe565b509392505050565b600082601f83011261334157613340612e08565b5b81356133518482602086016132ea565b91505092915050565b6000806000806080858703121561337457613373612a1c565b5b600061338287828801612c69565b945050602061339387828801612c69565b93505060406133a487828801612bb4565b925050606085013567ffffffffffffffff8111156133c5576133c4612a21565b5b6133d18782880161332c565b91505092959194509250565b6000610100820190506133f3600083018b612d9e565b8181036020830152613405818a612b38565b90506134146040830189612d9e565b81810360608301526134268188612b38565b90506134356080830187612d9e565b61344260a0830186612c28565b61344f60c0830185612ab7565b81810360e08301526134618184612b38565b90509998505050505050505050565b6000806040838503121561348757613486612a1c565b5b600061349585828601612c69565b92505060206134a685828601612c69565b9150509250929050565b7f4e487b7100000000000000000000000000000000000000000000000000000000600052602260045260246000fd5b600060028204905060018216806134f757607f821691505b60208210810361350a576135096134b0565b5b50919050565b7f4552433732313a20617070726f76616c20746f2063757272656e74206f776e6560008201527f7200000000000000000000000000000000000000000000000000000000000000602082015250565b600061356c602183612aec565b915061357782613510565b604082019050919050565b6000602082019050818103600083015261359b8161355f565b9050919050565b7f4552433732313a20617070726f76652063616c6c6572206973206e6f7420746f60008201527f6b656e206f776e6572206f7220617070726f76656420666f7220616c6c000000602082015250565b60006135fe603d83612aec565b9150613609826135a2565b604082019050919050565b6000602082019050818103600083015261362d816135f1565b9050919050565b7f4552433732313a2063616c6c6572206973206e6f7420746f6b656e206f776e6560008201527f72206f7220617070726f76656400000000000000000000000000000000000000602082015250565b6000613690602d83612aec565b915061369b82613634565b604082019050919050565b600060208201905081810360008301526136bf81613683565b9050919050565b7f416363657373436f6e74726f6c3a2063616e206f6e6c792072656e6f756e636560008201527f20726f6c657320666f722073656c660000000000000000000000000000000000602082015250565b6000613722602f83612aec565b915061372d826136c6565b604082019050919050565b6000602082019050818103600083015261375181613715565b9050919050565b60008190508160005260206000209050919050565b60006020601f8301049050919050565b600082821b905092915050565b6000600883026137ba7fffffffffffffffffffffffffffffffffffffffffffffffffffffffffffffffff8261377d565b6137c4868361377d565b95508019841693508086168417925050509392505050565b6000819050919050565b60006138016137fc6137f784612b93565b6137dc565b612b93565b9050919050565b6000819050919050565b61381b836137e6565b61382f61382782613808565b84845461378a565b825550505050565b600090565b613844613837565b61384f818484613812565b505050565b5b818110156138735761386860008261383c565b600181019050613855565b5050565b601f8211156138b85761388981613758565b6138928461376d565b810160208510156138a1578190505b6138b56138ad8561376d565b830182613854565b50505b505050565b600082821c905092915050565b60006138db600019846008026138bd565b1980831691505092915050565b60006138f483836138ca565b9150826002028217905092915050565b61390d82612ae1565b67ffffffffffffffff81111561392657613925612e12565b5b61393082546134df565b61393b828285613877565b600060209050601f83116001811461396e576000841561395c578287015190505b61396685826138e8565b8655506139ce565b601f19841661397c86613758565b60005b828110156139a45784890151825560018201915060208501945060208101905061397f565b868310156139c157848901516139bd601f8916826138ca565b8355505b6001600288020188555050505b505050505050565b7f506c616e746174696f6e20646f6573206e6f7420657869737400000000000000600082015250565b6000613a0c601983612aec565b9150613a17826139d6565b602082019050919050565b60006020820190508181036000830152613a3b816139ff565b9050919050565b7f4552433732313a20696e76616c696420746f6b656e2049440000000000000000600082015250565b6000613a78601883612aec565b9150613a8382613a42565b602082019050919050565b60006020820190508181036000830152613aa781613a6b565b9050919050565b7f4552433732313a2061646472657373207a65726f206973206e6f74206120766160008201527f6c6964206f776e65720000000000000000000000000000000000000000000000602082015250565b6000613b0a602983612aec565b9150613b1582613aae565b604082019050919050565b60006020820190508181036000830152613b3981613afd565b9050919050565b600081905092915050565b6000613b5682612ae1565b613b608185613b40565b9350613b70818560208601612afd565b80840191505092915050565b6000613b888285613b4b565b9150613b948284613b4b565b91508190509392505050565b7f4552433732313a207472616e736665722066726f6d20696e636f72726563742060008201527f6f776e6572000000000000000000000000000000000000000000000000000000602082015250565b6000613bfc602583612aec565b9150613c0782613ba0565b604082019050919050565b60006020820190508181036000830152613c2b81613bef565b9050919050565b7f4552433732313a207472616e7366657220746f20746865207a65726f2061646460008201527f7265737300000000000000000000000000000000000000000000000000000000602082015250565b6000613c8e602483612aec565b9150613c9982613c32565b604082019050919050565b60006020820190508181036000830152613cbd81613c81565b9050919050565b7f4552433732313a206d696e7420746f20746865207a65726f2061646472657373600082015250565b6000613cfa602083612aec565b9150613d0582613cc4565b602082019050919050565b60006020820190508181036000830152613d2981613ced565b9050919050565b7f4552433732313a20746f6b656e20616c7265616479206d696e74656400000000600082015250565b6000613d66601c83612aec565b9150613d7182613d30565b602082019050919050565b60006020820190508181036000830152613d9581613d59565b9050919050565b7f4552433732313a20617070726f766520746f2063616c6c657200000000000000600082015250565b6000613dd2601983612aec565b9150613ddd82613d9c565b602082019050919050565b60006020820190508181036000830152613e0181613dc5565b9050919050565b7f4552433732313a207472616e7366657220746f206e6f6e20455243373231526560008201527f63656976657220696d706c656d656e7465720000000000000000000000000000602082015250565b6000613e64603283612aec565b9150613e6f82613e08565b604082019050919050565b60006020820190508181036000830152613e9381613e57565b9050919050565b7f4e487b7100000000000000000000000000000000000000000000000000000000600052601260045260246000fd5b7f416363657373436f6e74726f6c3a206163636f756e7420000000000000000000600082015250565b6000613eff601783613b40565b9150613f0a82613ec9565b601782019050919050565b7f206973206d697373696e6720726f6c6520000000000000000000000000000000600082015250565b6000613f4b601183613b40565b9150613f5682613f15565b601182019050919050565b6000613f6c82613ef2565b9150613f788285613b4b565b9150613f8382613f3e565b9150613f8f8284613b4b565b91508190509392505050565b600081519050919050565b600082825260208201905092915050565b6000613fc282613f9b565b613fcc8185613fa6565b9350613fdc818560208601612afd565b613fe581612b27565b840191505092915050565b60006080820190506140056000830187612c28565b6140126020830186612c28565b61401f6040830185612d9e565b81810360608301526140318184613fb7565b905095945050505050565b60008151905061404b81612a52565b92915050565b60006020828403121561406757614066612a1c565b5b60006140758482850161403c565b91505092915050565b7f4e487b7100000000000000000000000000000000000000000000000000000000600052601160045260246000fd5b60006140b882612b93565b91506140c383612b93565b92508282026140d181612b93565b915082820484148315176140e8576140e761407e565b5b5092915050565b60006140fa82612b93565b915061410583612b93565b925082820190508082111561411d5761411c61407e565b5b92915050565b7f4e487b7100000000000000000000000000000000000000000000000000000000600052603260045260246000fd5b600061415d82612b93565b9150600082036141705761416f61407e565b5b600182039050919050565b7f537472696e67733a20686578206c656e67746820696e73756666696369656e74600082015250565b60006141b1602083612aec565b91506141bc8261417b565b602082019050919050565b600060208201905081810360008301526141e0816141a4565b905091905056fea2646970667358221220d33dc9437f7f41ce420acd473082a22d96a97b4abb2068f68bfad65206c5bfb664736f6c63430008140033",
  "linkReferences": {},
  "deployedLinkReferences": {}
}