{
  "_format": "hh-sol-artifact-1",
  "contractName": "BlueCarbonMRV",
  "sourceName": "contracts/BlueCarbonMRV.sol",
  "abi": [
    {
      "inputs": [
        {
          "internalType": "address",
          "name": "_creditAddress",
          "type": "address"
        },
        {
          "internalType": "address",
          "name": "_registryAddress",
          "type": "address"
        }
      ],
      "stateMutability": "nonpayable",
      "type": "constructor"
    },
    {
      "anonymous": false,
      "inputs": [
        {
          "indexed": false,
          "internalType": "address",
          "name": "account",
          "type": "address"
        }
      ],
      "name": "Paused",
      "type": "event"
    },
    {
      "anonymous": false,
      "inputs": [
        {
          "indexed": true,
          "internalType": "bytes32",
          "name": "role",
          "type": "bytes32"
        },
        {
          "indexed": true,
          "internalType": "bytes32",
          "name": "previousAdminRole",
          "type": "bytes32"
        },
        {
          "indexed": true,
          "internalType": "bytes32",
          "name": "newAdminRole",
          "type": "bytes32"
        }
      ],
      "name": "RoleAdminChanged",
      "type": "event"
    },
    {
      "anonymous": false,
      "inputs": [
        {
          "indexed": true,
          "internalType": "bytes32",
          "name": "role",
          "type": "bytes32"
        },
        {
          "indexed": true,
          "internalType": "address",
          "name": "account",
          "type": "address"
        },
        {
          "indexed": true,
          "internalType": "address",
          "name": "sender",
          "type": "address"
        }
      ],
      "name": "RoleGranted",
      "type": "event"
    },
    {
      "anonymous": false,
      "inputs": [
        {
          "indexed": true,
          "internalType": "bytes32",
          "name": "role",
          "type": "bytes32"
        },
        {
          "indexed": true,
          "internalType": "address",
          "name": "account",
          "type": "address"
        },
        {
          "indexed": true,
          "internalType": "address",
          "name": "sender",
          "type": "address"
        }
      ],
      "name": "RoleRevoked",
      "type": "event"
    },
    {
      "anonymous": false,
      "inputs": [
        {
          "indexed": false,
          "internalType": "address",
          "name": "account",
          "type": "address"
        }
      ],
      "name": "Unpaused",
      "type": "event"
    },
    {
      "inputs": [],
      "name": "ADMIN_ROLE",
      "outputs": [
        {
          "internalType": "bytes32",
          "name": "",
          "type": "bytes32"
        }
      ],
      "stateMutability": "view",
      "type": "function"
    },
    {
      "inputs": [],
      "name": "DEFAULT_ADMIN_ROLE",
      "outputs": [
        {
          "internalType": "bytes32",
          "name": "",
          "type": "bytes32"
        }
      ],
      "stateMutability": "view",
      "type": "function"
    },
    {
      "inputs": [],
      "name": "FIELD_OFFICER_ROLE",
      "outputs": [
        {
          "internalType": "bytes32",
          "name": "",
          "type": "bytes32"
        }
      ],
      "stateMutability": "view",
      "type": "function"
    },
    {
      "inputs": [],
      "name": "VERIFIER_ROLE",
      "outputs": [
        {
          "internalType": "bytes32",
          "name": "",
          "type": "bytes32"
        }
      ],
      "stateMutability": "view",
      "type": "function"
    },
    {
      "inputs": [],
      "name": "carbonCreditToken",
      "outputs": [
        {
          "internalType": "contract BlueCarbonCredit",
          "name": "",
          "type": "address"
        }
      ],
      "stateMutability": "view",
      "type": "function"
    },
    {
      "inputs": [
        {
          "internalType": "bytes32",
          "name": "role",
          "type": "bytes32"
        }
      ],
      "name": "getRoleAdmin",
      "outputs": [
        {
          "internalType": "bytes32",
          "name": "",
          "type": "bytes32"
        }
      ],
      "stateMutability": "view",
      "type": "function"
    },
    {
      "inputs": [
        {
          "internalType": "bytes32",
          "name": "role",
          "type": "bytes32"
        },
        {
          "internalType": "address",
          "name": "account",
          "type": "address"
        }
      ],
      "name": "grantRole",
      "outputs": [],
      "stateMutability": "nonpayable",
      "type": "function"
    },
    {
      "inputs": [
        {
          "internalType": "bytes32",
          "name": "role",
          "type": "bytes32"
        },
        {
          "internalType": "address",
          "name": "account",
          "type": "address"
        }
      ],
      "name": "hasRole",
      "outputs": [
        {
          "internalType": "bool",
          "name": "",
          "type": "bool"
        }
      ],
      "stateMutability": "view",
      "type": "function"
    },
    {
      "inputs": [],
      "name": "paused",
      "outputs": [
        {
          "internalType": "bool",
          "name": "",
          "type": "bool"
        }
      ],
      "stateMutability": "view",
      "type": "function"
    },
    {
      "inputs": [],
      "name": "plantationRegistry",
      "outputs": [
        {
          "internalType": "contract PlantationRegistry",
          "name": "",
          "type": "address"
        }
      ],
      "stateMutability": "view",
      "type": "function"
    },
    {
      "inputs": [
        {
          "internalType": "bytes32",
          "name": "role",
          "type": "bytes32"
        },
        {
          "internalType": "address",
          "name": "account",
          "type": "address"
        }
      ],
      "name": "renounceRole",
      "outputs": [],
      "stateMutability": "nonpayable",
      "type": "function"
    },
    {
      "inputs": [
        {
          "internalType": "bytes32",
          "name": "role",
          "type": "bytes32"
        },
        {
          "internalType": "address",
          "name": "account",
          "type": "address"
        }
      ],
      "name": "revokeRole",
      "outputs": [],
      "stateMutability": "nonpayable",
      "type": "function"
    },
    {
      "inputs": [
        {
          "internalType": "bytes4",
          "name": "interfaceId",
          "type": "bytes4"
        }
      ],
      "name": "supportsInterface",
      "outputs": [
        {
          "internalType": "bool",
          "name": "",
          "type": "bool"
        }
      ],
      "stateMutability": "view",
      "type": "function"
    }
  ],
  "bytecode": "0x60806040523480156200001157600080fd5b50604051620017b0380380620017b0833981810160405281019062000037919062000575565b600180819055506000600260006101000a81548160ff0219169083151502179055506200006e6000801b33620003a860201b60201c565b620000a07fa49807205ce4d355092ef5a8a18f56e8913cf4a201fbe287825b095693c2177533620003a860201b60201c565b620000d27f0ce23c3e399818cfee81a7ab0880f714e53d7672b08df0fa62f2843416e1ea0933620003a860201b60201c565b81600260016101000a81548173ffffffffffffffffffffffffffffffffffffffff021916908373ffffffffffffffffffffffffffffffffffffffff16021790555080600360006101000a81548173ffffffffffffffffffffffffffffffffffffffff021916908373ffffffffffffffffffffffffffffffffffffffff160217905550600260019054906101000a900473ffffffffffffffffffffffffffffffffffffffff1673ffffffffffffffffffffffffffffffffffffffff16632f2ff15d600260019054906101000a900473ffffffffffffffffffffffffffffffffffffffff1673ffffffffffffffffffffffffffffffffffffffff1663d53913936040518163ffffffff1660e01b8152600401602060405180830381865afa15801562000200573d6000803e3d6000fd5b505050506040513d601f19601f82011682018060405250810190620002269190620005f7565b306040518363ffffffff1660e01b8152600401620002469291906200064b565b600060405180830381600087803b1580156200026157600080fd5b505af115801562000276573d6000803e3d6000fd5b50505050600360009054906101000a900473ffffffffffffffffffffffffffffffffffffffff1673ffffffffffffffffffffffffffffffffffffffff16632f2ff15d600360009054906101000a900473ffffffffffffffffffffffffffffffffffffffff1673ffffffffffffffffffffffffffffffffffffffff1663e7705db66040518163ffffffff1660e01b8152600401602060405180830381865afa15801562000326573d6000803e3d6000fd5b505050506040513d601f19601f820116820180604052508101906200034c9190620005f7565b306040518363ffffffff1660e01b81526004016200036c9291906200064b565b600060405180830381600087803b1580156200038757600080fd5b505af11580156200039c573d6000803e3d6000fd5b50505050505062000678565b620003ba82826200049960201b60201c565b6200049557600160008084815260200190815260200160002060000160008373ffffffffffffffffffffffffffffffffffffffff1673ffffffffffffffffffffffffffffffffffffffff16815260200190815260200160002060006101000a81548160ff0219169083151502179055506200043a6200050360201b60201c565b73ffffffffffffffffffffffffffffffffffffffff168173ffffffffffffffffffffffffffffffffffffffff16837f2f8788117e7eff1d82e926ec794901d17c78024a50270940304540a733656f0d60405160405180910390a45b5050565b600080600084815260200190815260200160002060000160008373ffffffffffffffffffffffffffffffffffffffff1673ffffffffffffffffffffffffffffffffffffffff16815260200190815260200160002060009054906101000a900460ff16905092915050565b600033905090565b600080fd5b600073ffffffffffffffffffffffffffffffffffffffff82169050919050565b60006200053d8262000510565b9050919050565b6200054f8162000530565b81146200055b57600080fd5b50565b6000815190506200056f8162000544565b92915050565b600080604083850312156200058f576200058e6200050b565b5b60006200059f858286016200055e565b9250506020620005b2858286016200055e565b9150509250929050565b6000819050919050565b620005d181620005bc565b8114620005dd57600080fd5b50565b600081519050620005f181620005c6565b92915050565b60006020828403121562000610576200060f6200050b565b5b60006200062084828501620005e0565b91505092915050565b6200063481620005bc565b82525050565b620006458162000530565b82525050565b600060408201905062000662600083018562000629565b6200067160208301846200063a565b9392505050565b61112880620006886000396000f3fe608060405234801561001057600080fd5b50600436106100cf5760003560e01c80635c975abb1161008c57806391d148541161006657806391d1485414610202578063a217fddf14610232578063d547741f14610250578063e7705db61461026c576100cf565b80635c975abb146101a857806366dea358146101c657806375b238fc146101e4576100cf565b806301ffc9a7146100d4578063248a9ca3146101045780632f2ff15d146101345780633129b5b61461015057806336568abe1461016e578063519f56341461018a575b600080fd5b6100ee60048036038101906100e99190610aba565b61028a565b6040516100fb9190610b02565b60405180910390f35b61011e60048036038101906101199190610b53565b610304565b60405161012b9190610b8f565b60405180910390f35b61014e60048036038101906101499190610c08565b610323565b005b610158610344565b6040516101659190610b8f565b60405180910390f35b61018860048036038101906101839190610c08565b610368565b005b6101926103eb565b60405161019f9190610ca7565b60405180910390f35b6101b0610411565b6040516101bd9190610b02565b60405180910390f35b6101ce610428565b6040516101db9190610ce3565b60405180910390f35b6101ec61044e565b6040516101f99190610b8f565b60405180910390f35b61021c60048036038101906102179190610c08565b610472565b6040516102299190610b02565b60405180910390f35b61023a6104dc565b6040516102479190610b8f565b60405180910390f35b61026a60048036038101906102659190610c08565b6104e3565b005b610274610504565b6040516102819190610b8f565b60405180910390f35b60007f7965db0b000000000000000000000000000000000000000000000000000000007bffffffffffffffffffffffffffffffffffffffffffffffffffffffff1916827bffffffffffffffffffffffffffffffffffffffffffffffffffffffff191614806102fd57506102fc82610528565b5b9050919050565b6000806000838152602001908152602001600020600101549050919050565b61032c82610304565b61033581610592565b61033f83836105a6565b505050565b7f76081f40039b2c0f5a005cea88e5b3073cbf938f124dfaff34fda64b78d5425181565b610370610686565b73ffffffffffffffffffffffffffffffffffffffff168173ffffffffffffffffffffffffffffffffffffffff16146103dd576040517f08c379a00000000000000000000000000000000000000000000000000000000081526004016103d490610d81565b60405180910390fd5b6103e7828261068e565b5050565b600360009054906101000a900473ffffffffffffffffffffffffffffffffffffffff1681565b6000600260009054906101000a900460ff16905090565b600260019054906101000a900473ffffffffffffffffffffffffffffffffffffffff1681565b7fa49807205ce4d355092ef5a8a18f56e8913cf4a201fbe287825b095693c2177581565b600080600084815260200190815260200160002060000160008373ffffffffffffffffffffffffffffffffffffffff1673ffffffffffffffffffffffffffffffffffffffff16815260200190815260200160002060009054906101000a900460ff16905092915050565b6000801b81565b6104ec82610304565b6104f581610592565b6104ff838361068e565b505050565b7f0ce23c3e399818cfee81a7ab0880f714e53d7672b08df0fa62f2843416e1ea0981565b60007f01ffc9a7000000000000000000000000000000000000000000000000000000007bffffffffffffffffffffffffffffffffffffffffffffffffffffffff1916827bffffffffffffffffffffffffffffffffffffffffffffffffffffffff1916149050919050565b6105a38161059e610686565b61076f565b50565b6105b08282610472565b61068257600160008084815260200190815260200160002060000160008373ffffffffffffffffffffffffffffffffffffffff1673ffffffffffffffffffffffffffffffffffffffff16815260200190815260200160002060006101000a81548160ff021916908315150217905550610627610686565b73ffffffffffffffffffffffffffffffffffffffff168173ffffffffffffffffffffffffffffffffffffffff16837f2f8788117e7eff1d82e926ec794901d17c78024a50270940304540a733656f0d60405160405180910390a45b5050565b600033905090565b6106988282610472565b1561076b57600080600084815260200190815260200160002060000160008373ffffffffffffffffffffffffffffffffffffffff1673ffffffffffffffffffffffffffffffffffffffff16815260200190815260200160002060006101000a81548160ff021916908315150217905550610710610686565b73ffffffffffffffffffffffffffffffffffffffff168173ffffffffffffffffffffffffffffffffffffffff16837ff6391f5c32d9c69d2a47ea670b442974b53935d1edc7fd64eb21e047a839171b60405160405180910390a45b5050565b6107798282610472565b6107f057610786816107f4565b6107948360001c6020610821565b6040516020016107a5929190610eaa565b6040516020818303038152906040526040517f08c379a00000000000000000000000000000000000000000000000000000000081526004016107e79190610f2e565b60405180910390fd5b5050565b606061081a8273ffffffffffffffffffffffffffffffffffffffff16601460ff16610821565b9050919050565b6060600060028360026108349190610f89565b61083e9190610fcb565b67ffffffffffffffff81111561085757610856610fff565b5b6040519080825280601f01601f1916602001820160405280156108895781602001600182028036833780820191505090505b5090507f3000000000000000000000000000000000000000000000000000000000000000816000815181106108c1576108c061102e565b5b60200101907effffffffffffffffffffffffffffffffffffffffffffffffffffffffffffff1916908160001a9053507f7800000000000000000000000000000000000000000000000000000000000000816001815181106109255761092461102e565b5b60200101907effffffffffffffffffffffffffffffffffffffffffffffffffffffffffffff1916908160001a905350600060018460026109659190610f89565b61096f9190610fcb565b90505b6001811115610a0f577f3031323334353637383961626364656600000000000000000000000000000000600f8616601081106109b1576109b061102e565b5b1a60f81b8282815181106109c8576109c761102e565b5b60200101907effffffffffffffffffffffffffffffffffffffffffffffffffffffffffffff1916908160001a905350600485901c945080610a089061105d565b9050610972565b5060008414610a53576040517f08c379a0000000000000000000000000000000000000000000000000000000008152600401610a4a906110d2565b60405180910390fd5b8091505092915050565b600080fd5b60007fffffffff0000000000000000000000000000000000000000000000000000000082169050919050565b610a9781610a62565b8114610aa257600080fd5b50565b600081359050610ab481610a8e565b92915050565b600060208284031215610ad057610acf610a5d565b5b6000610ade84828501610aa5565b91505092915050565b60008115159050919050565b610afc81610ae7565b82525050565b6000602082019050610b176000830184610af3565b92915050565b6000819050919050565b610b3081610b1d565b8114610b3b57600080fd5b50565b600081359050610b4d81610b27565b92915050565b600060208284031215610b6957610b68610a5d565b5b6000610b7784828501610b3e565b91505092915050565b610b8981610b1d565b82525050565b6000602082019050610ba46000830184610b80565b92915050565b600073ffffffffffffffffffffffffffffffffffffffff82169050919050565b6000610bd582610baa565b9050919050565b610be581610bca565b8114610bf057600080fd5b50565b600081359050610c0281610bdc565b92915050565b60008060408385031215610c1f57610c1e610a5d565b5b6000610c2d85828601610b3e565b9250506020610c3e85828601610bf3565b9150509250929050565b6000819050919050565b6000610c6d610c68610c6384610baa565b610c48565b610baa565b9050919050565b6000610c7f82610c52565b9050919050565b6000610c9182610c74565b9050919050565b610ca181610c86565b82525050565b6000602082019050610cbc6000830184610c98565b92915050565b6000610ccd82610c74565b9050919050565b610cdd81610cc2565b82525050565b6000602082019050610cf86000830184610cd4565b92915050565b600082825260208201905092915050565b7f416363657373436f6e74726f6c3a2063616e206f6e6c792072656e6f756e636560008201527f20726f6c657320666f722073656c660000000000000000000000000000000000602082015250565b6000610d6b602f83610cfe565b9150610d7682610d0f565b604082019050919050565b60006020820190508181036000830152610d9a81610d5e565b9050919050565b600081905092915050565b7f416363657373436f6e74726f6c3a206163636f756e7420000000000000000000600082015250565b6000610de2601783610da1565b9150610ded82610dac565b601782019050919050565b600081519050919050565b60005b83811015610e21578082015181840152602081019050610e06565b60008484015250505050565b6000610e3882610df8565b610e428185610da1565b9350610e52818560208601610e03565b80840191505092915050565b7f206973206d697373696e6720726f6c6520000000000000000000000000000000600082015250565b6000610e94601183610da1565b9150610e9f82610e5e565b601182019050919050565b6000610eb582610dd5565b9150610ec18285610e2d565b9150610ecc82610e87565b9150610ed88284610e2d565b91508190509392505050565b6000601f19601f8301169050919050565b6000610f0082610df8565b610f0a8185610cfe565b9350610f1a818560208601610e03565b610f2381610ee4565b840191505092915050565b60006020820190508181036000830152610f488184610ef5565b905092915050565b6000819050919050565b7f4e487b7100000000000000000000000000000000000000000000000000000000600052601160045260246000fd5b6000610f9482610f50565b9150610f9f83610f50565b9250828202610fad81610f50565b91508282048414831517610fc457610fc3610f5a565b5b5092915050565b6000610fd682610f50565b9150610fe183610f50565b9250828201905080821115610ff957610ff8610f5a565b5b92915050565b7f4e487b7100000000000000000000000000000000000000000000000000000000600052604160045260246000fd5b7f4e487b7100000000000000000000000000000000000000000000000000000000600052603260045260246000fd5b600061106882610f50565b91506000820361107b5761107a610f5a565b5b600182039050919050565b7f537472696e67733a20686578206c656e67746820696e73756666696369656e74600082015250565b60006110bc602083610cfe565b91506110c782611086565b602082019050919050565b600060208201905081810360008301526110eb816110af565b905091905056fea2646970667358221220ff8ab4b1877119e660bdfc4e7398698220fe6afac12c0f21676ba275ae62d3c764736f6c63430008140033",
  "linkReferences": {},
  "deployedLinkReferences": {}
}